{
  "address": "0x3B1D3f696801fe7b510198f5653A6510c8DcfB2e",
  "abi": [
    {
      "inputs": [],
      "stateMutability": "nonpayable",
      "type": "constructor"
    },
    {
      "anonymous": false,
      "inputs": [
        {
          "indexed": true,
          "internalType": "address",
          "name": "owner",
          "type": "address"
        },
        {
          "indexed": true,
          "internalType": "address",
          "name": "approved",
          "type": "address"
        },
        {
          "indexed": true,
          "internalType": "uint256",
          "name": "tokenId",
          "type": "uint256"
        }
      ],
      "name": "Approval",
      "type": "event"
    },
    {
      "anonymous": false,
      "inputs": [
        {
          "indexed": true,
          "internalType": "address",
          "name": "owner",
          "type": "address"
        },
        {
          "indexed": true,
          "internalType": "address",
          "name": "operator",
          "type": "address"
        },
        {
          "indexed": false,
          "internalType": "bool",
          "name": "approved",
          "type": "bool"
        }
      ],
      "name": "ApprovalForAll",
      "type": "event"
    },
    {
      "anonymous": false,
      "inputs": [
        {
          "indexed": true,
          "internalType": "address",
          "name": "from",
          "type": "address"
        },
        {
          "indexed": true,
          "internalType": "address",
          "name": "to",
          "type": "address"
        },
        {
          "indexed": true,
          "internalType": "uint256",
          "name": "tokenId",
          "type": "uint256"
        }
      ],
      "name": "Transfer",
      "type": "event"
    },
    {
      "inputs": [
        {
          "internalType": "address",
          "name": "to",
          "type": "address"
        },
        {
          "internalType": "uint256",
          "name": "tokenId",
          "type": "uint256"
        }
      ],
      "name": "approve",
      "outputs": [],
      "stateMutability": "nonpayable",
      "type": "function"
    },
    {
      "inputs": [
        {
          "internalType": "address",
          "name": "owner",
          "type": "address"
        }
      ],
      "name": "balanceOf",
      "outputs": [
        {
          "internalType": "uint256",
          "name": "",
          "type": "uint256"
        }
      ],
      "stateMutability": "view",
      "type": "function"
    },
    {
      "inputs": [
        {
          "internalType": "uint256",
          "name": "tokenId",
          "type": "uint256"
        }
      ],
      "name": "generateCharacter",
      "outputs": [
        {
          "internalType": "string",
          "name": "",
          "type": "string"
        }
      ],
      "stateMutability": "view",
      "type": "function"
    },
    {
      "inputs": [
        {
          "internalType": "uint256",
          "name": "tokenId",
          "type": "uint256"
        }
      ],
      "name": "getApproved",
      "outputs": [
        {
          "internalType": "address",
          "name": "",
          "type": "address"
        }
      ],
      "stateMutability": "view",
      "type": "function"
    },
    {
      "inputs": [
        {
          "internalType": "uint256",
          "name": "tokenId",
          "type": "uint256"
        }
      ],
      "name": "getLevels",
      "outputs": [
        {
          "internalType": "string",
          "name": "",
          "type": "string"
        }
      ],
      "stateMutability": "view",
      "type": "function"
    },
    {
      "inputs": [
        {
          "internalType": "uint256",
          "name": "tokenId",
          "type": "uint256"
        }
      ],
      "name": "getTokenURI",
      "outputs": [
        {
          "internalType": "string",
          "name": "",
          "type": "string"
        }
      ],
      "stateMutability": "view",
      "type": "function"
    },
    {
      "inputs": [
        {
          "internalType": "address",
          "name": "owner",
          "type": "address"
        },
        {
          "internalType": "address",
          "name": "operator",
          "type": "address"
        }
      ],
      "name": "isApprovedForAll",
      "outputs": [
        {
          "internalType": "bool",
          "name": "",
          "type": "bool"
        }
      ],
      "stateMutability": "view",
      "type": "function"
    },
    {
      "inputs": [],
      "name": "mint",
      "outputs": [],
      "stateMutability": "nonpayable",
      "type": "function"
    },
    {
      "inputs": [],
      "name": "name",
      "outputs": [
        {
          "internalType": "string",
          "name": "",
          "type": "string"
        }
      ],
      "stateMutability": "view",
      "type": "function"
    },
    {
      "inputs": [
        {
          "internalType": "uint256",
          "name": "tokenId",
          "type": "uint256"
        }
      ],
      "name": "ownerOf",
      "outputs": [
        {
          "internalType": "address",
          "name": "",
          "type": "address"
        }
      ],
      "stateMutability": "view",
      "type": "function"
    },
    {
      "inputs": [
        {
          "internalType": "address",
          "name": "from",
          "type": "address"
        },
        {
          "internalType": "address",
          "name": "to",
          "type": "address"
        },
        {
          "internalType": "uint256",
          "name": "tokenId",
          "type": "uint256"
        }
      ],
      "name": "safeTransferFrom",
      "outputs": [],
      "stateMutability": "nonpayable",
      "type": "function"
    },
    {
      "inputs": [
        {
          "internalType": "address",
          "name": "from",
          "type": "address"
        },
        {
          "internalType": "address",
          "name": "to",
          "type": "address"
        },
        {
          "internalType": "uint256",
          "name": "tokenId",
          "type": "uint256"
        },
        {
          "internalType": "bytes",
          "name": "_data",
          "type": "bytes"
        }
      ],
      "name": "safeTransferFrom",
      "outputs": [],
      "stateMutability": "nonpayable",
      "type": "function"
    },
    {
      "inputs": [
        {
          "internalType": "address",
          "name": "operator",
          "type": "address"
        },
        {
          "internalType": "bool",
          "name": "approved",
          "type": "bool"
        }
      ],
      "name": "setApprovalForAll",
      "outputs": [],
      "stateMutability": "nonpayable",
      "type": "function"
    },
    {
      "inputs": [
        {
          "internalType": "bytes4",
          "name": "interfaceId",
          "type": "bytes4"
        }
      ],
      "name": "supportsInterface",
      "outputs": [
        {
          "internalType": "bool",
          "name": "",
          "type": "bool"
        }
      ],
      "stateMutability": "view",
      "type": "function"
    },
    {
      "inputs": [],
      "name": "symbol",
      "outputs": [
        {
          "internalType": "string",
          "name": "",
          "type": "string"
        }
      ],
      "stateMutability": "view",
      "type": "function"
    },
    {
      "inputs": [
        {
          "internalType": "uint256",
          "name": "",
          "type": "uint256"
        }
      ],
      "name": "tokenIdToLevels",
      "outputs": [
        {
          "internalType": "uint256",
          "name": "",
          "type": "uint256"
        }
      ],
      "stateMutability": "view",
      "type": "function"
    },
    {
      "inputs": [
        {
          "internalType": "uint256",
          "name": "tokenId",
          "type": "uint256"
        }
      ],
      "name": "tokenURI",
      "outputs": [
        {
          "internalType": "string",
          "name": "",
          "type": "string"
        }
      ],
      "stateMutability": "view",
      "type": "function"
    },
    {
      "inputs": [
        {
          "internalType": "uint256",
          "name": "tokenId",
          "type": "uint256"
        }
      ],
      "name": "train",
      "outputs": [],
      "stateMutability": "nonpayable",
      "type": "function"
    },
    {
      "inputs": [
        {
          "internalType": "address",
          "name": "from",
          "type": "address"
        },
        {
          "internalType": "address",
          "name": "to",
          "type": "address"
        },
        {
          "internalType": "uint256",
          "name": "tokenId",
          "type": "uint256"
        }
      ],
      "name": "transferFrom",
      "outputs": [],
      "stateMutability": "nonpayable",
      "type": "function"
    }
  ],
  "transactionHash": "0xaa75c23e601668230ec10e39407657efbab8341af8c452a33e475eed131cfe55",
  "args": [],
  "numDeployments": 2,
  "solcInputHash": "77c0eaefe3a5ffff3de5c08c356c5c4f",
  "bytecode": "0x60806040523480156200001157600080fd5b50604080518082018252600d81526c436861696e20426174746c657360981b6020808301918252835180850190945260058452644342544c5360d81b908401528151919291620000649160009162000083565b5080516200007a90600190602084019062000083565b50505062000166565b828054620000919062000129565b90600052602060002090601f016020900481019282620000b5576000855562000100565b82601f10620000d057805160ff191683800117855562000100565b8280016001018555821562000100579182015b8281111562000100578251825591602001919060010190620000e3565b506200010e92915062000112565b5090565b5b808211156200010e576000815560010162000113565b600181811c908216806200013e57607f821691505b602082108114156200016057634e487b7160e01b600052602260045260246000fd5b50919050565b61238f80620001766000396000f3fe608060405234801561001057600080fd5b50600436106101515760003560e01c806342842e0e116100cd578063b88d4fde11610081578063c87b56dd11610066578063c87b56dd146102bc578063e985e9c5146102cf578063f43785f91461030b57600080fd5b8063b88d4fde14610289578063c6a4342f1461029c57600080fd5b806370a08231116100b257806370a082311461024d57806395d89b411461026e578063a22cb4651461027657600080fd5b806342842e0e146102275780636352211e1461023a57600080fd5b80630daefed51161012457806323b872dd1161010957806323b872dd146101ee578063368004ed146102015780633bb3a24d1461021457600080fd5b80630daefed5146101d35780631249c58b146101e657600080fd5b806301ffc9a71461015657806306fdde031461017e578063081812fc14610193578063095ea7b3146101be575b600080fd5b6101696101643660046119f5565b61031e565b60405190151581526020015b60405180910390f35b610186610403565b6040516101759190611a6a565b6101a66101a1366004611a7d565b610495565b6040516001600160a01b039091168152602001610175565b6101d16101cc366004611ab2565b610540565b005b6101866101e1366004611a7d565b610672565b6101d16106d0565b6101d16101fc366004611adc565b610719565b6101d161020f366004611a7d565b6107a0565b610186610222366004611a7d565b6108c4565b6101d1610235366004611adc565b610915565b6101a6610248366004611a7d565b610930565b61026061025b366004611b18565b6109bb565b604051908152602001610175565b610186610a55565b6101d1610284366004611b33565b610a64565b6101d1610297366004611b85565b610a6f565b6102606102aa366004611a7d565b60086020526000908152604090205481565b6101866102ca366004611a7d565b610afd565b6101696102dd366004611c61565b6001600160a01b03918216600090815260056020908152604080832093909416825291909152205460ff1690565b610186610319366004611a7d565b610c90565b60007fffffffff0000000000000000000000000000000000000000000000000000000082167f80ac58cd0000000000000000000000000000000000000000000000000000000014806103b157507fffffffff0000000000000000000000000000000000000000000000000000000082167f5b5e139f00000000000000000000000000000000000000000000000000000000145b806103fd57507f01ffc9a7000000000000000000000000000000000000000000000000000000007fffffffff000000000000000000000000000000000000000000000000000000008316145b92915050565b60606000805461041290611c94565b80601f016020809104026020016040519081016040528092919081815260200182805461043e90611c94565b801561048b5780601f106104605761010080835404028352916020019161048b565b820191906000526020600020905b81548152906001019060200180831161046e57829003601f168201915b5050505050905090565b6000818152600260205260408120546001600160a01b03166105245760405162461bcd60e51b815260206004820152602c60248201527f4552433732313a20617070726f76656420717565727920666f72206e6f6e657860448201527f697374656e7420746f6b656e000000000000000000000000000000000000000060648201526084015b60405180910390fd5b506000908152600460205260409020546001600160a01b031690565b600061054b82610930565b9050806001600160a01b0316836001600160a01b031614156105d55760405162461bcd60e51b815260206004820152602160248201527f4552433732313a20617070726f76616c20746f2063757272656e74206f776e6560448201527f7200000000000000000000000000000000000000000000000000000000000000606482015260840161051b565b336001600160a01b03821614806105f157506105f181336102dd565b6106635760405162461bcd60e51b815260206004820152603860248201527f4552433732313a20617070726f76652063616c6c6572206973206e6f74206f7760448201527f6e6572206e6f7220617070726f76656420666f7220616c6c0000000000000000606482015260840161051b565b61066d8383610cb2565b505050565b6060600061067f83610c90565b60405160200161068f9190611ceb565b60405160208183030381529060405290506106a981610d2d565b6040516020016106b99190611fea565b604051602081830303815290604052915050919050565b6106de600780546001019055565b60006106e960075490565b90506106f53382610e81565b60008181526008602052604081205561071681610711816108c4565b610e9b565b50565b6107233382610f44565b6107955760405162461bcd60e51b815260206004820152603160248201527f4552433732313a207472616e736665722063616c6c6572206973206e6f74206f60448201527f776e6572206e6f7220617070726f766564000000000000000000000000000000606482015260840161051b565b61066d838383611048565b6000818152600260205260409020546001600160a01b03166108045760405162461bcd60e51b815260206004820152601c60248201527f506c656173652075736520616e206578697374696e6720746f6b656e00000000604482015260640161051b565b3361080e82610930565b6001600160a01b03161461088a5760405162461bcd60e51b815260206004820152602360248201527f596f75206d757374206f776e207468697320746f6b656e20746f20747261696e60448201527f2069740000000000000000000000000000000000000000000000000000000000606482015260840161051b565b6000818152600860205260409020546108a4816001612045565b6000838152600860205260409020556108c082610711816108c4565b5050565b606060006108d183611222565b6108da84610672565b6040516020016108eb92919061205d565b604051602081830303815290604052905061090581610d2d565b6040516020016106b991906121a7565b61066d83838360405180602001604052806000815250610a6f565b6000818152600260205260408120546001600160a01b0316806103fd5760405162461bcd60e51b815260206004820152602960248201527f4552433732313a206f776e657220717565727920666f72206e6f6e657869737460448201527f656e7420746f6b656e0000000000000000000000000000000000000000000000606482015260840161051b565b60006001600160a01b038216610a395760405162461bcd60e51b815260206004820152602a60248201527f4552433732313a2062616c616e636520717565727920666f7220746865207a6560448201527f726f206164647265737300000000000000000000000000000000000000000000606482015260840161051b565b506001600160a01b031660009081526003602052604090205490565b60606001805461041290611c94565b6108c0338383611354565b610a793383610f44565b610aeb5760405162461bcd60e51b815260206004820152603160248201527f4552433732313a207472616e736665722063616c6c6572206973206e6f74206f60448201527f776e6572206e6f7220617070726f766564000000000000000000000000000000606482015260840161051b565b610af784848484611441565b50505050565b6000818152600260205260409020546060906001600160a01b0316610b8a5760405162461bcd60e51b815260206004820152603160248201527f45524337323155524953746f726167653a2055524920717565727920666f722060448201527f6e6f6e6578697374656e7420746f6b656e000000000000000000000000000000606482015260840161051b565b60008281526006602052604081208054610ba390611c94565b80601f0160208091040260200160405190810160405280929190818152602001828054610bcf90611c94565b8015610c1c5780601f10610bf157610100808354040283529160200191610c1c565b820191906000526020600020905b815481529060010190602001808311610bff57829003601f168201915b505050505090506000610c3a60408051602081019091526000815290565b9050805160001415610c4d575092915050565b815115610c7f578082604051602001610c679291906121ec565b60405160208183030381529060405292505050919050565b610c88846114ca565b949350505050565b600081815260086020526040902054606090610cab81611222565b9392505050565b6000818152600460205260409020805473ffffffffffffffffffffffffffffffffffffffff19166001600160a01b0384169081179091558190610cf482610930565b6001600160a01b03167f8c5be1e5ebec7d5bd14f71427d1e84f3dd0314c0f7b2291e5b200ac8c7c3b92560405160405180910390a45050565b6060815160001415610d4d57505060408051602081019091526000815290565b600060405180606001604052806040815260200161231a6040913990506000600384516002610d7c9190612045565b610d869190612231565b610d91906004612245565b67ffffffffffffffff811115610da957610da9611b6f565b6040519080825280601f01601f191660200182016040528015610dd3576020820181803683370190505b509050600182016020820185865187015b80821015610e3f576003820191508151603f8160121c168501518453600184019350603f81600c1c168501518453600184019350603f8160061c168501518453600184019350603f8116850151845350600183019250610de4565b5050600386510660018114610e5b5760028114610e6e57610e76565b603d6001830353603d6002830353610e76565b603d60018303535b509195945050505050565b6108c08282604051806020016040528060008152506115a9565b6000828152600260205260409020546001600160a01b0316610f255760405162461bcd60e51b815260206004820152602e60248201527f45524337323155524953746f726167653a2055524920736574206f66206e6f6e60448201527f6578697374656e7420746f6b656e000000000000000000000000000000000000606482015260840161051b565b6000828152600660209081526040909120825161066d9284019061192e565b6000818152600260205260408120546001600160a01b0316610fce5760405162461bcd60e51b815260206004820152602c60248201527f4552433732313a206f70657261746f7220717565727920666f72206e6f6e657860448201527f697374656e7420746f6b656e0000000000000000000000000000000000000000606482015260840161051b565b6000610fd983610930565b9050806001600160a01b0316846001600160a01b031614806110145750836001600160a01b031661100984610495565b6001600160a01b0316145b80610c8857506001600160a01b0380821660009081526005602090815260408083209388168352929052205460ff16610c88565b826001600160a01b031661105b82610930565b6001600160a01b0316146110d75760405162461bcd60e51b815260206004820152602560248201527f4552433732313a207472616e736665722066726f6d20696e636f72726563742060448201527f6f776e6572000000000000000000000000000000000000000000000000000000606482015260840161051b565b6001600160a01b0382166111525760405162461bcd60e51b8152602060048201526024808201527f4552433732313a207472616e7366657220746f20746865207a65726f2061646460448201527f7265737300000000000000000000000000000000000000000000000000000000606482015260840161051b565b61115d600082610cb2565b6001600160a01b0383166000908152600360205260408120805460019290611186908490612264565b90915550506001600160a01b03821660009081526003602052604081208054600192906111b4908490612045565b9091555050600081815260026020526040808220805473ffffffffffffffffffffffffffffffffffffffff19166001600160a01b0386811691821790925591518493918716917fddf252ad1be2c89b69c2b068fc378daa952ba7f163c4a11628f55a4df523b3ef91a4505050565b60608161126257505060408051808201909152600181527f3000000000000000000000000000000000000000000000000000000000000000602082015290565b8160005b811561128c57806112768161227b565b91506112859050600a83612231565b9150611266565b60008167ffffffffffffffff8111156112a7576112a7611b6f565b6040519080825280601f01601f1916602001820160405280156112d1576020820181803683370190505b5090505b8415610c88576112e6600183612264565b91506112f3600a86612296565b6112fe906030612045565b60f81b818381518110611313576113136122aa565b60200101907effffffffffffffffffffffffffffffffffffffffffffffffffffffffffffff1916908160001a90535061134d600a86612231565b94506112d5565b816001600160a01b0316836001600160a01b031614156113b65760405162461bcd60e51b815260206004820152601960248201527f4552433732313a20617070726f766520746f2063616c6c657200000000000000604482015260640161051b565b6001600160a01b0383811660008181526005602090815260408083209487168084529482529182902080547fffffffffffffffffffffffffffffffffffffffffffffffffffffffffffffff001686151590811790915591519182527f17307eab39ab6107e8899845ad3d59bd9653f200f220920489ca2b5937696c31910160405180910390a3505050565b61144c848484611048565b61145884848484611632565b610af75760405162461bcd60e51b815260206004820152603260248201527f4552433732313a207472616e7366657220746f206e6f6e20455243373231526560448201527f63656976657220696d706c656d656e7465720000000000000000000000000000606482015260840161051b565b6000818152600260205260409020546060906001600160a01b03166115575760405162461bcd60e51b815260206004820152602f60248201527f4552433732314d657461646174613a2055524920717565727920666f72206e6f60448201527f6e6578697374656e7420746f6b656e0000000000000000000000000000000000606482015260840161051b565b600061156e60408051602081019091526000815290565b9050600081511161158e5760405180602001604052806000815250610cab565b8061159884611222565b6040516020016106b99291906121ec565b6115b383836117df565b6115c06000848484611632565b61066d5760405162461bcd60e51b815260206004820152603260248201527f4552433732313a207472616e7366657220746f206e6f6e20455243373231526560448201527f63656976657220696d706c656d656e7465720000000000000000000000000000606482015260840161051b565b60006001600160a01b0384163b156117d4576040517f150b7a020000000000000000000000000000000000000000000000000000000081526001600160a01b0385169063150b7a029061168f9033908990889088906004016122c0565b602060405180830381600087803b1580156116a957600080fd5b505af19250505080156116d9575060408051601f3d908101601f191682019092526116d6918101906122fc565b60015b611789573d808015611707576040519150601f19603f3d011682016040523d82523d6000602084013e61170c565b606091505b5080516117815760405162461bcd60e51b815260206004820152603260248201527f4552433732313a207472616e7366657220746f206e6f6e20455243373231526560448201527f63656976657220696d706c656d656e7465720000000000000000000000000000606482015260840161051b565b805181602001fd5b7fffffffff00000000000000000000000000000000000000000000000000000000167f150b7a0200000000000000000000000000000000000000000000000000000000149050610c88565b506001949350505050565b6001600160a01b0382166118355760405162461bcd60e51b815260206004820181905260248201527f4552433732313a206d696e7420746f20746865207a65726f2061646472657373604482015260640161051b565b6000818152600260205260409020546001600160a01b03161561189a5760405162461bcd60e51b815260206004820152601c60248201527f4552433732313a20746f6b656e20616c7265616479206d696e74656400000000604482015260640161051b565b6001600160a01b03821660009081526003602052604081208054600192906118c3908490612045565b9091555050600081815260026020526040808220805473ffffffffffffffffffffffffffffffffffffffff19166001600160a01b03861690811790915590518392907fddf252ad1be2c89b69c2b068fc378daa952ba7f163c4a11628f55a4df523b3ef908290a45050565b82805461193a90611c94565b90600052602060002090601f01602090048101928261195c57600085556119a2565b82601f1061197557805160ff19168380011785556119a2565b828001600101855582156119a2579182015b828111156119a2578251825591602001919060010190611987565b506119ae9291506119b2565b5090565b5b808211156119ae57600081556001016119b3565b7fffffffff000000000000000000000000000000000000000000000000000000008116811461071657600080fd5b600060208284031215611a0757600080fd5b8135610cab816119c7565b60005b83811015611a2d578181015183820152602001611a15565b83811115610af75750506000910152565b60008151808452611a56816020860160208601611a12565b601f01601f19169290920160200192915050565b602081526000610cab6020830184611a3e565b600060208284031215611a8f57600080fd5b5035919050565b80356001600160a01b0381168114611aad57600080fd5b919050565b60008060408385031215611ac557600080fd5b611ace83611a96565b946020939093013593505050565b600080600060608486031215611af157600080fd5b611afa84611a96565b9250611b0860208501611a96565b9150604084013590509250925092565b600060208284031215611b2a57600080fd5b610cab82611a96565b60008060408385031215611b4657600080fd5b611b4f83611a96565b915060208301358015158114611b6457600080fd5b809150509250929050565b634e487b7160e01b600052604160045260246000fd5b60008060008060808587031215611b9b57600080fd5b611ba485611a96565b9350611bb260208601611a96565b925060408501359150606085013567ffffffffffffffff80821115611bd657600080fd5b818701915087601f830112611bea57600080fd5b813581811115611bfc57611bfc611b6f565b604051601f8201601f19908116603f01168101908382118183101715611c2457611c24611b6f565b816040528281528a6020848701011115611c3d57600080fd5b82602086016020830137600060208483010152809550505050505092959194509250565b60008060408385031215611c7457600080fd5b611c7d83611a96565b9150611c8b60208401611a96565b90509250929050565b600181811c90821680611ca857607f821691505b60208210811415611cc957634e487b7160e01b600052602260045260246000fd5b50919050565b60008151611ce1818560208601611a12565b9290920192915050565b7f3c73766720786d6c6e733d27687474703a2f2f7777772e77332e6f72672f323081527f30302f73766727207072657365727665417370656374526174696f3d27784d6960208201527f6e594d696e206d656574272076696577426f783d27302030203335302033353060408201527f273e00000000000000000000000000000000000000000000000000000000000060608201527f3c7374796c653e2e62617365207b2066696c6c3a2077686974653b20666f6e7460628201527f2d66616d696c793a2073657269663b20666f6e742d73697a653a20313470783b60828201527f207d3c2f7374796c653e0000000000000000000000000000000000000000000060a28201527f3c726563742077696474683d273130302527206865696768743d27313030252760ac8201527f2066696c6c3d27626c61636b27202f3e0000000000000000000000000000000060cc8201527f3c7465787420783d273530252720793d273430252720636c6173733d2762617360dc8201527f652720646f6d696e616e742d626173656c696e653d276d6964646c652720746560fc8201527f78742d616e63686f723d276d6964646c65273e0000000000000000000000000061011c8201527f57617272696f720000000000000000000000000000000000000000000000000061012f8201526000610cab611fc1611ef4611fbb611f92611f1d610136880184565b7f3c2f746578743e00000000000000000000000000000000000000000000000000815260070190565b7f3c7465787420783d273530252720793d273530252720636c6173733d2762617381527f652720646f6d696e616e742d626173656c696e653d276d6964646c652720746560208201527f78742d616e63686f723d276d6964646c65273e00000000000000000000000000604082015260530190565b7f4c6576656c733a20000000000000000000000000000000000000000000000000815260080190565b86611ccf565b7f3c2f7376673e0000000000000000000000000000000000000000000000000000815260060190565b7f646174613a696d6167652f7376672b786d6c3b6261736536342c00000000000081526000825161202281601a850160208701611a12565b91909101601a0192915050565b634e487b7160e01b600052601160045260246000fd5b600082198211156120585761205861202f565b500190565b7f7b0000000000000000000000000000000000000000000000000000000000000081527f226e616d65223a2022436861696e20426174746c6573202300000000000000006001820152600083516120bb816019850160208801611a12565b7f222c00000000000000000000000000000000000000000000000000000000000060199184019182018190527f226465736372697074696f6e223a2022426174746c6573206f6e20636861696e601b830152603b8201527f22696d616765223a202200000000000000000000000000000000000000000000603d820152835161214b816047840160208801611a12565b7f2200000000000000000000000000000000000000000000000000000000000000604792909101918201527f7d000000000000000000000000000000000000000000000000000000000000006048820152604901949350505050565b7f646174613a6170706c69636174696f6e2f6a736f6e3b6261736536342c0000008152600082516121df81601d850160208701611a12565b91909101601d0192915050565b600083516121fe818460208801611a12565b835190830190612212818360208801611a12565b01949350505050565b634e487b7160e01b600052601260045260246000fd5b6000826122405761224061221b565b500490565b600081600019048311821515161561225f5761225f61202f565b500290565b6000828210156122765761227661202f565b500390565b600060001982141561228f5761228f61202f565b5060010190565b6000826122a5576122a561221b565b500690565b634e487b7160e01b600052603260045260246000fd5b60006001600160a01b038087168352808616602084015250836040830152608060608301526122f26080830184611a3e565b9695505050505050565b60006020828403121561230e57600080fd5b8151610cab816119c756fe4142434445464748494a4b4c4d4e4f505152535455565758595a6162636465666768696a6b6c6d6e6f707172737475767778797a303132333435363738392b2fa264697066735822122040eb03a044e7345c2ab85e859b2a2e8c3180375b19467290b393e51c29111a6764736f6c63430008090033",
  "devdoc": {
    "kind": "dev",
    "methods": {
      "approve(address,uint256)": {
        "details": "See {IERC721-approve}."
      },
      "balanceOf(address)": {
        "details": "See {IERC721-balanceOf}."
      },
      "getApproved(uint256)": {
        "details": "See {IERC721-getApproved}."
      },
      "isApprovedForAll(address,address)": {
        "details": "See {IERC721-isApprovedForAll}."
      },
      "name()": {
        "details": "See {IERC721Metadata-name}."
      },
      "ownerOf(uint256)": {
        "details": "See {IERC721-ownerOf}."
      },
      "safeTransferFrom(address,address,uint256)": {
        "details": "See {IERC721-safeTransferFrom}."
      },
      "safeTransferFrom(address,address,uint256,bytes)": {
        "details": "See {IERC721-safeTransferFrom}."
      },
      "setApprovalForAll(address,bool)": {
        "details": "See {IERC721-setApprovalForAll}."
      },
      "supportsInterface(bytes4)": {
        "details": "See {IERC165-supportsInterface}."
      },
      "symbol()": {
        "details": "See {IERC721Metadata-symbol}."
      },
      "tokenURI(uint256)": {
        "details": "See {IERC721Metadata-tokenURI}."
      },
      "transferFrom(address,address,uint256)": {
        "details": "See {IERC721-transferFrom}."
      }
    },
    "version": 1
  },
  "userdoc": {
    "kind": "user",
    "methods": {},
    "version": 1
  },
  "storageLayout": {
    "storage": [
      {
        "astId": 25,
        "contract": "src/ChainBattles.sol:ChainBattles",
        "label": "_name",
        "offset": 0,
        "slot": "0",
        "type": "t_string_storage"
      },
      {
        "astId": 27,
        "contract": "src/ChainBattles.sol:ChainBattles",
        "label": "_symbol",
        "offset": 0,
        "slot": "1",
        "type": "t_string_storage"
      },
      {
        "astId": 31,
        "contract": "src/ChainBattles.sol:ChainBattles",
        "label": "_owners",
        "offset": 0,
        "slot": "2",
        "type": "t_mapping(t_uint256,t_address)"
      },
      {
        "astId": 35,
        "contract": "src/ChainBattles.sol:ChainBattles",
        "label": "_balances",
        "offset": 0,
        "slot": "3",
        "type": "t_mapping(t_address,t_uint256)"
      },
      {
        "astId": 39,
        "contract": "src/ChainBattles.sol:ChainBattles",
        "label": "_tokenApprovals",
        "offset": 0,
        "slot": "4",
        "type": "t_mapping(t_uint256,t_address)"
      },
      {
        "astId": 45,
        "contract": "src/ChainBattles.sol:ChainBattles",
        "label": "_operatorApprovals",
        "offset": 0,
        "slot": "5",
        "type": "t_mapping(t_address,t_mapping(t_address,t_bool))"
      },
      {
        "astId": 1012,
        "contract": "src/ChainBattles.sol:ChainBattles",
        "label": "_tokenURIs",
        "offset": 0,
        "slot": "6",
        "type": "t_mapping(t_uint256,t_string_storage)"
      },
      {
        "astId": 1849,
        "contract": "src/ChainBattles.sol:ChainBattles",
        "label": "_tokenIds",
        "offset": 0,
        "slot": "7",
        "type": "t_struct(Counter)1524_storage"
      },
      {
        "astId": 1853,
        "contract": "src/ChainBattles.sol:ChainBattles",
        "label": "tokenIdToLevels",
        "offset": 0,
        "slot": "8",
        "type": "t_mapping(t_uint256,t_uint256)"
      }
    ],
    "types": {
      "t_address": {
        "encoding": "inplace",
        "label": "address",
        "numberOfBytes": "20"
      },
      "t_bool": {
        "encoding": "inplace",
        "label": "bool",
        "numberOfBytes": "1"
      },
      "t_mapping(t_address,t_bool)": {
        "encoding": "mapping",
        "key": "t_address",
        "label": "mapping(address => bool)",
        "numberOfBytes": "32",
        "value": "t_bool"
      },
      "t_mapping(t_address,t_mapping(t_address,t_bool))": {
        "encoding": "mapping",
        "key": "t_address",
        "label": "mapping(address => mapping(address => bool))",
        "numberOfBytes": "32",
        "value": "t_mapping(t_address,t_bool)"
      },
      "t_mapping(t_address,t_uint256)": {
        "encoding": "mapping",
        "key": "t_address",
        "label": "mapping(address => uint256)",
        "numberOfBytes": "32",
        "value": "t_uint256"
      },
      "t_mapping(t_uint256,t_address)": {
        "encoding": "mapping",
        "key": "t_uint256",
        "label": "mapping(uint256 => address)",
        "numberOfBytes": "32",
        "value": "t_address"
      },
      "t_mapping(t_uint256,t_string_storage)": {
        "encoding": "mapping",
        "key": "t_uint256",
        "label": "mapping(uint256 => string)",
        "numberOfBytes": "32",
        "value": "t_string_storage"
      },
      "t_mapping(t_uint256,t_uint256)": {
        "encoding": "mapping",
        "key": "t_uint256",
        "label": "mapping(uint256 => uint256)",
        "numberOfBytes": "32",
        "value": "t_uint256"
      },
      "t_string_storage": {
        "encoding": "bytes",
        "label": "string",
        "numberOfBytes": "32"
      },
      "t_struct(Counter)1524_storage": {
        "encoding": "inplace",
        "label": "struct Counters.Counter",
        "members": [
          {
            "astId": 1523,
            "contract": "src/ChainBattles.sol:ChainBattles",
            "label": "_value",
            "offset": 0,
            "slot": "0",
            "type": "t_uint256"
          }
        ],
        "numberOfBytes": "32"
      },
      "t_uint256": {
        "encoding": "inplace",
        "label": "uint256",
        "numberOfBytes": "32"
      }
    }
  }
}